:100000000C942A000C9447000C9447000C94470071
:100010000C9447000C9447000C9447000C94370153
:100020000C9447000C9447000C9447000C94470034
:100030000C9447000C9447000C9447000C94470024
:100040000C9447000C9447000C9447000C94470014
:100050000C94470011241FBECFE5D8E0DEBFCDBF12
:1000600010E0A0E6B0E0E2EFFFE002C005900D92E4
:10007000AC36B107D9F720E0ACE6B0E001C01D9284
:10008000A737B207E1F70E9484010C94F7070C949C
:100090000000AB01BC0182E083BF96EF08C092BFB5
:1000A00088B7816088BFA89508B600FEFDCF415093
:1000B00051096109710998F713BE0895662311F07B
:1000C000C09A01C0C098C19882BB8FEF81BBC29A11
:1000D000000000000000C2980895C098C19A11BAAB
:1000E00090B3C29A00000000000011BA90B3C29809
:1000F00099239CF30E945E000895B89AB99ABA9A1F
:1001000060E170E080E090E00E94490060E080E300
:100110000E945E0065E070E080E090E00E9449008F
:1001200060E080E30E945E0061E070E080E090E0CB
:100130000E94490060E08CE30E946D0060E08CE06A
:100140000E946D0060E086E00E946D0060E081E04A
:100150000E946D00089560E081E00E946D000895A6
:10016000CF93C62F98E2899FC00D112460E082E0F2
:100170000E946D00CC2331F060E084E10E946D00AC
:10018000C150D1F7CF910895CF93DF93EC01219621
:10019000FC018081882331F061E00E946D0089912B
:1001A0008111FACFDF91CF910895CF93DF9314BAE5
:1001B00015BA95B3EB01249621E030E0A9010C2E8D
:1001C00002C0440F551F0A94E2F7492B45BB94B374
:1001D00002C0220F331F8A95E2F7922B94BB85B39E
:1001E0002095282325BB6AE070E080E090E00E9423
:1001F000490023B330E002C035952795CA95E2F750
:1002000081E090E020FF02C080E090E0DF91CF919C
:1002100008950F931F93CF93DF9300E010E018C071
:10022000BE01C8010E94D500009749F0000F111FC0
:10023000000F111FC00FD11FCE0101960CC02196D7
:10024000C430D10569F70F5F1F4F0430110519F055
:10025000C0E0D0E0E5CFDF91CF911F910F910895DD
:10026000379A369A3699FECF84B195B108951F9288
:100270000F920FB60F9211242F933F934F935F93DA
:100280006F937F938F939F93AF93BF93EF93FF935E
:1002900080916C00882339F10E94300120916D001B
:1002A00030916E008217930720F490936E00809334
:1002B0006D0020916F00309170002817390720F4ED
:1002C0009093700080936F00EDE6F0E09583848357
:1002D00026813781820F931F97838683808591853E
:1002E000019691878087FF91EF91BF91AF919F9188
:1002F0008F917F916F915F914F913F912F910F90CF
:100300000FBE0F901F901895CF93DF93CDB7DEB738
:10031000A6970FB6F894DEBF0FBECDBF3E9A8EB53E
:1003200088608EBD89B7806189BF789481E19AE742
:100330009BBD8ABD8EB584608EBD0DE610E08FEF4B
:1003400093E0F801918380831382128217821682D0
:1003500081E090E091878087158214820E947D0061
:1003600060E080E00E94B000F8011186108638013C
:1003700000E610E09E012F5F3F4F290160E080E022
:100380000E94B000F30164817581CB01880F991F31
:10039000880F991F680F791F80E090E00E94120477
:1003A00020E030E040E85AE30E94A0046B017C01A9
:1003B0000E94DC036D8B7E8B8F8B988F2D893E89FD
:1003C000B901330F880B990B0E9414049B01AC01F7
:1003D000C701B6010E94FD0220E030E048EC52E483
:1003E0000E94A0040E94DC0369A37AA3F301668142
:1003F000778180E090E00E94120420E030E040E845
:100400005AE30E94A00420E030E040EA50E40E9459
:10041000A0046B017C01F3016085718580E090E0B0
:100420000E9412049B01AC01C701B6010E946A033D
:100430006B017C010E94DC034B015C01072E000C68
:10044000880B990B0E9414049B01AC01C701B601F3
:100450000E94FD0220E030E048EC52E40E94A0043B
:100460000E94DC036BA37CA3F30162817381CB0147
:10047000880F991F880F991F680F791F80E090E0FF
:100480000E94120420E030E040E85AE30E94A004F9
:100490006B017C010E94DC03698F7A8F8B8F9C8FAC
:1004A000298D3A8DB901330F880B990B0E941404E2
:1004B0009B01AC01C701B6010E94FD0220E030E0C3
:1004C00048EC52E40E94A0040E94DC036DA37EA3CA
:1004D000F30160817181CB01880F991F880F991FEB
:1004E000680F791F80E090E00E94120420E030E065
:1004F00040E85AE30E94A0046D8F7E8F8F8F98A3EF
:100500000E94DC036B017C0161157105C9F0072EA7
:10051000000C880B990B0E9414049B01AC016D8D9B
:100520007E8D8F8D98A10E94FD0220E030E048EC86
:1005300052E40E94A0040E94DC03262E372E02C043
:10054000212C312CFCA1FF932BA12F939F928F92F2
:100550003AA13F9389A18F939E899F93ED89EF9351
:100560001F930F935F924F920E940D05C2010E944C
:10057000C40060E081E00E94B0003F922F92DF92C1
:10058000CF92FEA1FF932DA12F933A8D3F93898D9A
:100590008F931F930F935F924F920E940D05C2019C
:1005A0000E94C4000E9409010FB6F894DEBF0FBE7E
:1005B000CDBF0097D9F0089744F481E090916C008A
:1005C000911180E080936C0011C02FEF33E0F301B4
:1005D00031832083138212821782168281E090E099
:1005E00091878087158214820E94AB0068EE73E0C9
:1005F00080E090E00E944900C1CE5058BB27AA2756
:100600000E9415030C9466040E94580438F00E945E
:100610005F0420F039F49F3F19F426F40C9455043C
:100620000EF4E095E7FB0C944F04E92F0E94770449
:1006300058F3BA17620773078407950720F079F417
:10064000A6F50C9499040EF4E0950B2EBA2FA02D6C
:100650000B01B90190010C01CA01A0011124FF276F
:10066000591B99F0593F50F4503E68F11A16F0406A
:10067000A22F232F342F4427585FF3CF4695379569
:100680002795A795F0405395C9F77EF41F16BA0B2E
:10069000620B730B840BBAF09150A1F0FF0FBB1FDC
:1006A000661F771F881FC2F70EC0BA0F621F731F25
:1006B000841F48F4879577956795B795F7959E3F82
:1006C00008F0B0CF9395880F08F09927EE0F979513
:1006D000879508950E947E030C9466040E945F042F
:1006E00058F00E94580440F029F45F3F29F00C9420
:1006F0004F0451110C949A040C9455040E947704F1
:1007000068F39923B1F3552391F3951B550BBB2740
:10071000AA2762177307840738F09F5F5F4F220F85
:10072000331F441FAA1FA9F335D00E2E3AF0E0E87C
:1007300032D091505040E695001CCAF72BD0FE2FC6
:1007400029D0660F771F881FBB1F2617370748075A
:10075000AB07B0E809F0BB0B802DBF01FF27935812
:100760005F4F3AF09E3F510578F00C944F040C9483
:100770009A045F3FE4F3983ED4F3869577956795A6
:10078000B795F7959F5FC9F7880F911D9695879547
:1007900097F90895E1E0660F771F881FBB1F621766
:1007A00073078407BA0720F0621B730B840BBA0B24
:1007B000EE1F88F7E09508950E94E3036894B11155
:1007C0000C949A0408950E947F0488F09F5798F033
:1007D000B92F9927B751B0F0E1F0660F771F881F46
:1007E000991F1AF0BA95C9F714C0B13091F00E9460
:1007F0009904B1E008950C949904672F782F882705
:10080000B85F39F0B93FCCF3869577956795B39586
:10081000D9F73EF490958095709561957F4F8F4FF5
:100820009F4F0895E89409C097FB3EF490958095FA
:10083000709561957F4F8F4F9F4F9923A9F0F92FA6
:1008400096E9BB279395F695879577956795B79524
:10085000F111F8CFFAF4BB0F11F460FF1BC06F5F0A
:100860007F4F8F4F9F4F16C0882311F096E911C01C
:10087000772321F09EE8872F762F05C0662371F03D
:1008800096E8862F70E060E02AF09A95660F771F51
:10089000881FDAF7880F9695879597F9089597F945
:1008A0009F6780E870E060E008959FEF80EC089516
:1008B00000240A941616170618060906089500243F
:1008C0000A9412161306140605060895092E0394B9
:1008D000000C11F4882352F0BB0F40F4BF2B11F42D
:1008E00060FF04C06F5F7F4F8F4F9F4F089557FD8C
:1008F0009058440F551F59F05F3F71F04795880F8E
:1009000097FB991F61F09F3F79F087950895121624
:1009100013061406551FF2CF4695F1DF08C01616D0
:1009200017061806991FF1CF869571056105089481
:100930000895E894BB2766277727CB0197F9089598
:100940000E94B3040C9466040E94580438F00E947C
:100950005F0420F0952311F00C944F040C9455047F
:1009600011240C949A040E94770470F3959FC1F3AC
:10097000950F50E0551F629FF001729FBB27F00D4D
:10098000B11D639FAA27F00DB11DAA1F649F6627A2
:10099000B00DA11D661F829F2227B00DA11D621FF1
:1009A000739FB00DA11D621F839FA00D611D221FAB
:1009B000749F3327A00D611D231F849F600D211D8F
:1009C000822F762F6A2F11249F5750409AF0F1F012
:1009D00088234AF0EE0FFF1FBB1F661F771F881F7B
:1009E00091505040A9F79E3F510580F00C944F0460
:1009F0000C949A045F3FE4F3983ED4F38695779580
:100A00006795B795F795E7959F5FC1F7FE2B880F20
:100A1000911D9695879597F90895AEE0B0E0E3E1D2
:100A2000F5E00C94CE070D891E8986E08C831A832D
:100A300009838FEF9FE79E838D83AE01475E5F4FF3
:100A40006F89788DCE0101960E942F05EF81F88580
:100A5000E00FF11F10822E96E4E00C94EA07ABE061
:100A6000B0E0E5E3F5E00C94C0076C017B018A017E
:100A7000FC0117821682838181FFCCC1CE010196D1
:100A80003C01F6019381F70193FD859193FF8191DC
:100A90007F01882309F4BAC1853239F493FD859129
:100AA00093FF81917F01853229F4B60190E00E9485
:100AB0002607E7CF912C212C312CFFE1F315D8F03C
:100AC0008B3279F038F4803279F08332A1F4232D1F
:100AD00020611DC08D3261F0803369F4232D2160C7
:100AE00016C0832D8260382EE32DE4603E2E2AC08E
:100AF000F32DF8601DC037FC2DC020ED280F2A30E3
:100B000040F08E32B9F436FC81C1232D2064322EA0
:100B100019C036FE06C08AE0989E200D1124922E40
:100B200011C0EAE02E9E200D1124222EF32DF0623A
:100B30003F2E08C08C3621F4832D8068382E02C0E9
:100B4000883641F4F70193FD859193FF81917F01F0
:100B50008111B3CF982F9F7D9554933028F40C5F6B
:100B60001F4F9FE399830DC0833631F0833771F0B7
:100B7000833509F059C021C0F801808189830E5F57
:100B80001F4F88248394912C530113C02801F2E055
:100B90004F0E511CF801A080B18036FE03C0692DB4
:100BA00070E002C06FEF7FEFC5010E941B074C0190
:100BB0008201F32DFF773F2E16C0280122E0420E5E
:100BC000511CF801A080B18036FE03C0692D70E091
:100BD00002C06FEF7FEFC5010E9410074C01F32D9B
:100BE000F0683F2E820133FC1BC0822D90E08816F6
:100BF0009906B0F4B60180E290E00E9426072A949C
:100C0000F4CFF50137FC859137FE81915F01B60184
:100C100090E00E94260721102A9421E0821A910870
:100C20008114910471F7E8C0843611F0893641F5DA
:100C3000F80137FE07C060817181828193810C5F6A
:100C40001F4F08C060817181072E000C880B990B23
:100C50000E5F1F4FF32DFF763F2E97FF09C0909533
:100C60008095709561957F4F8F4F9F4FF0683F2E15
:100C70002AE030E0A3010E946207882E861845C052
:100C8000853731F4232D2F7EB22E2AE030E025C0A7
:100C9000932D997FB92E8F36C1F018F4883579F0ED
:100CA000B5C0803719F0883721F0B0C0E92FE06176
:100CB000BE2EB4FE0DC0FB2DF460BF2E09C034FE65
:100CC0000AC0292F2660B22E06C028E030E005C0F9
:100CD00020E130E002C020E132E0F801B7FE07C0B9
:100CE00060817181828193810C5F1F4F06C060819A
:100CF000718180E090E00E5F1F4FA3010E946207A8
:100D0000882E8618FB2DFF773F2E36FE0DC0232D33
:100D10002E7FA22E891458F434FE0BC032FC09C079
:100D2000832D8E7EA82E05C0B82CA32C03C0B82C12
:100D300001C0B92CA4FE0FC0FE01E80DF11D808199
:100D4000803321F49A2D997EA92E09C0A2FE06C0F7
:100D5000B394B39404C08A2D867809F0B394A3FCAD
:100D600011C0A0FE06C0B21488F4280C922C9B1867
:100D70000EC0B21460F4B60180E290E00E94260733
:100D8000B394F7CFB21418F42B1802C0982C212C6E
:100D9000A4FE10C0B60180E390E00E942607A2FEE8
:100DA00017C0A1FC03C088E790E002C088E590E08E
:100DB000B6010CC08A2D867859F0A1FE02C08BE2E4
:100DC00001C080E2A7FC8DE2B60190E00E942607F8
:100DD000891438F4B60180E390E00E9426079A94C3
:100DE000F7CF8A94F301E80DF11D8081B60190E000
:100DF0000E9426078110F5CF222009F442CEB601C9
:100E000080E290E00E9426072A94F6CFF6018681C0
:100E1000978102C08FEF9FEF2B96E2E10C94DC07E5
:100E2000FC010590615070400110D8F780959095B5
:100E30008E0F9F1F0895FC016150704001900110BA
:100E4000D8F7809590958E0F9F1F08950F931F934D
:100E5000CF93DF93FB01238121FD03C08FEF9FEF31
:100E60002CC022FF16C0468157812481358142174C
:100E7000530744F4A081B1819D012F5F3F4F31831F
:100E800020838C93268137812F5F3F4F37832683C2
:100E900014C08B01EC01FB010084F185E02D099564
:100EA000892BE1F6D80116968D919C9117970196A2
:100EB00017969C938E931697CE01DF91CF911F9139
:100EC0000F910895FA01AA27283051F1203181F1BC
:100ED000E8946F936E7F6E5F7F4F8F4F9F4FAF4F42
:100EE000B1E03ED0B4E03CD0670F781F891F9A1F55
:100EF000A11D680F791F8A1F911DA11D6A0F711D09
:100F0000811D911DA11D20D009F468943F912AE014
:100F1000269F11243019305D3193DEF6CF010895FC
:100F2000462F4770405D4193B3E00FD0C9F7F6CF2D
:100F3000462F4F70405D4A3318F0495D31FD4052F5
:100F4000419302D0A9F7EACFB4E0A695979587958B
:100F500077956795BA95C9F700976105710508956A
:100F60009B01AC010A2E0694579547953795279516
:100F7000BA95C9F7620F731F841F951FA01D0895AE
:100F80002F923F924F925F926F927F928F929F9299
:100F9000AF92BF92CF92DF92EF92FF920F931F9387
:100FA000CF93DF93CDB7DEB7CA1BDB0B0FB6F89438
:100FB000DEBF0FBECDBF09942A88398848885F8478
:100FC0006E847D848C849B84AA84B984C884DF80E9
:100FD000EE80FD800C811B81AA81B981CE0FD11DCD
:100FE0000FB6F894DEBF0FBECDBFED010895F894A3
:020FF000FFCF31
:0C0FF20025692E25692025692E2569003F
:00000001FF
