:100000000C942A000C9447000C9447000C94470071
:100010000C9447000C9447000C9447000C94470044
:100020000C9447000C9447000C9447000C94470034
:100030000C9447000C9447000C9447000C94470024
:100040000C9447000C9447000C9447000C94470014
:100050000C94470011241FBECFE5D8E0DEBFCDBF12
:1000600012E0A0E6B0E0E4E6FBE002C005900D92ED
:10007000AC3CB107D9F722E0ACECB2E001C01D9274
:10008000A03EB207E1F70E94E5010C94B0050C9484
:100090000000AB01BC0182E083BF96EF08C092BFB5
:1000A00088B7816088BFA89508B600FEFDCF415093
:1000B00051096109710998F713BE0895662311F07B
:1000C000C09A01C0C098C19882BB8FEF81BBC29A11
:1000D000000000000000C2980895C098C19A11BAAB
:1000E00090B3C29A00000000000011BA90B3C29809
:1000F00099239CF30E945E000895B89AB99ABA9A1F
:1001000060E170E080E090E00E94490060E080E300
:100110000E945E0065E070E080E090E00E9449008F
:1001200060E080E30E945E0061E070E080E090E0CB
:100130000E94490060E08CE30E946D0060E08CE06A
:100140000E946D0060E086E00E946D0060E081E04A
:100150000E946D00089560E081E00E946D000895A6
:10016000CF93C62F98E2899FC00D112460E082E0F2
:100170000E946D00CC2331F060E084E10E946D00AC
:10018000C150D1F7CF910895CF93DF93EC01219621
:10019000FC018081882331F061E00E946D0089912B
:1001A0008111FACFDF91CF910895CF93DF9314BAE5
:1001B00015BA95B3EB01249621E030E0A9010C2E8D
:1001C00002C0440F551F0A94E2F7492B45BB94B374
:1001D00002C0220F331F8A95E2F7922B94BB85B39E
:1001E0002095282325BB6AE070E080E090E00E9423
:1001F000490023B330E002C035952795CA95E2F750
:1002000081E090E020FF02C080E090E0DF91CF919C
:1002100008950F931F93CF93DF9300E010E018C071
:10022000BE01C8010E94D500009749F0000F111FC0
:10023000000F111FC00FD11FCE0101960CC02196D7
:10024000C430D10569F70F5F1F4F0430110519F055
:10025000C0E0D0E0E5CFDF91CF911F910F910895DD
:100260008F929F92AF92BF92CF92DF92EF92FF92C6
:10027000CF93DF937C01EB01D09A892B79F460EA6C
:1002800076E881E090E09E010D2E000C440B550BAA
:100290000E948202CA01B9010E9449009701FF0C25
:1002A000440B550B0F2EF0EA8F2EF6E89F2EAA2452
:1002B000A394B12CF02DC501B4010E948202690102
:1002C0007A01F694E794D794C794DE010E94A402C1
:1002D0009B01AC01C501B4010E94820249015A018F
:1002E0000E94AB00FF92EF92DF92CF9288E690E0FF
:1002F0009F938F938CEC92E09F938F930E94C60202
:100300008CEC92E00E94C4008DB79EB708960FB6A1
:10031000F8949EBF0FBE8DBF81149104A104B10457
:10032000B9F0C0E0D0E0D89AC701B6010E944900F8
:10033000D898C701B6010E9449002196CE010D2E22
:10034000000CAA0BBB0B88159905AA05BB0558F331
:10035000DF91CF91FF90EF90DF90CF90BF90AF9063
:100360009F908F900895EF92FF920F931F93CF93DA
:10037000DF93880F991FFC01E05AFF4F30812181E4
:10038000FC01E952FF4FE080F1801E141F04B4F419
:10039000C32FD22F00E010E06A817B818881998190
:1003A0000E94300168EE73E080E090E00E94490016
:1003B0000F5F1F4F2496E016F10671F7DF91CF9182
:1003C0001F910F91FF90EF900895D09A0E947D00A9
:1003D00060E080E00E94B00083E1ECE6F0E0ACEC8D
:1003E000B2E001900D928A95E1F78CEC92E00E94C8
:1003F000C40060E081E00E94B00080E1EFE7F0E03F
:10040000ACECB2E001900D928A95E1F78CEC92E0B1
:100410000E94C4000E940901EC01892BC9F260E02E
:1004200080E00E94B0000E94AB00C330D10591F182
:1004300034F4C130D10551F02297D1F0C9CFC53085
:10044000D105D1F1269709F449C0C2CF80E1EFE888
:10045000F0E0ACECB2E001900D928A95E1F78CEC03
:1004600092E00E94C40080E090E00E94B301B0CF0F
:100470008EE0EFE9F0E0ACECB2E001900D928A95ED
:10048000E1F78CEC92E00E94C40081E090E00E94D1
:10049000B3019ECF8EE0EDEAF0E0ACECB2E001906B
:1004A0000D928A95E1F78CEC92E00E94C40082E004
:1004B00090E00E94B3018CCF81E1EBEBF0E0ACEC7B
:1004C000B2E001900D928A95E1F78CEC92E00E94E7
:1004D000C40083E090E00E94B3017ACF8BE0ECECA3
:1004E000F0E0ACECB2E001900D928A95E1F78CEC73
:1004F00092E00E94C40060EA76E881E090E00E9409
:10050000490066CFA1E21A2EAA1BBB1BFD010DC03C
:10051000AA1FBB1FEE1FFF1FA217B307E407F507B3
:1005200020F0A21BB30BE40BF50B661F771F881F8F
:10053000991F1A9469F760957095809590959B0125
:10054000AC01BD01CF010895B7FF0C94AC020E942D
:10055000AC02821B930B08950E94B702A59F900DD9
:10056000B49F900DA49F800D911D11240895A29F0A
:10057000B001B39FC001A39F700D811D1124911D77
:10058000B29F700D811D1124911D0895AEE0B0E061
:10059000ECECF2E00C9487050D891E8986E08C83D3
:1005A0001A8309838FEF9FE79E838D83AE01475E99
:1005B0005F4F6F89788DCE0101960E94E802EF812E
:1005C000F885E00FF11F10822E96E4E00C94A3054D
:1005D000ABE0B0E0EEEEF2E00C9479056C017B014B
:1005E0008A01FC0117821682838181FFCCC1CE0172
:1005F00001963C01F6019381F70193FD859193FFEC
:1006000081917F01882309F4BAC1853239F493FDC1
:10061000859193FF81917F01853229F4B60190E0A5
:100620000E94DF04E7CF912C212C312CFFE1F31540
:10063000D8F08B3279F038F4803279F08332A1F43B
:10064000232D20611DC08D3261F0803369F4232D8C
:10065000216016C0832D8260382EE32DE4603E2E8B
:100660002AC0F32DF8601DC037FC2DC020ED280FE7
:100670002A3040F08E32B9F436FC81C1232D20643B
:10068000322E19C036FE06C08AE0989E200D112435
:10069000922E11C0EAE02E9E200D1124222EF32D61
:1006A000F0623F2E08C08C3621F4832D8068382EEE
:1006B00002C0883641F4F70193FD859193FF819143
:1006C0007F018111B3CF982F9F7D9554933028F4EB
:1006D0000C5F1F4F9FE399830DC0833631F0833742
:1006E00071F0833509F059C021C0F80180818983F8
:1006F0000E5F1F4F88248394912C530113C028014F
:10070000F2E04F0E511CF801A080B18036FE03C00C
:10071000692D70E002C06FEF7FEFC5010E94D40425
:100720004C018201F32DFF773F2E16C0280122E0F5
:10073000420E511CF801A080B18036FE03C0692D25
:1007400070E002C06FEF7FEFC5010E94C9044C0149
:10075000F32DF0683F2E820133FC1BC0822D90E008
:1007600088169906B0F4B60180E290E00E94DF049A
:100770002A94F4CFF50137FC859137FE81915F0112
:10078000B60190E00E94DF0421102A9421E0821A31
:1007900091088114910471F7E8C0843611F089360C
:1007A00041F5F80137FE07C0608171818281938134
:1007B0000C5F1F4F08C060817181072E000C880BF1
:1007C000990B0E5F1F4FF32DFF763F2E97FF09C049
:1007D00090958095709561957F4F8F4F9F4FF068F2
:1007E0003F2E2AE030E0A3010E941B05882E8618C8
:1007F00045C0853731F4232D2F7EB22E2AE030E01C
:1008000025C0932D997FB92E8F36C1F018F4883505
:1008100079F0B5C0803719F0883721F0B0C0E92FE2
:10082000E061BE2EB4FE0DC0FB2DF460BF2E09C0EA
:1008300034FE0AC0292F2660B22E06C028E030E020
:1008400005C020E130E002C020E132E0F801B7FE4F
:1008500007C060817181828193810C5F1F4F06C048
:100860006081718180E090E00E5F1F4FA3010E94C4
:100870001B05882E8618FB2DFF773F2E36FE0DC0F8
:10088000232D2E7FA22E891458F434FE0BC032FC87
:1008900009C0832D8E7EA82E05C0B82CA32C03C0C2
:1008A000B82C01C0B92CA4FE0FC0FE01E80DF11D4B
:1008B0008081803321F49A2D997EA92E09C0A2FE51
:1008C00006C0B394B39404C08A2D867809F0B3941B
:1008D000A3FC11C0A0FE06C0B21488F4280C922C10
:1008E0009B180EC0B21460F4B60180E290E00E9442
:1008F000DF04B394F7CFB21418F42B1802C0982C6D
:10090000212CA4FE10C0B60180E390E00E94DF0419
:10091000A2FE17C0A1FC03C088E790E002C088E5F2
:1009200090E0B6010CC08A2D867859F0A1FE02C075
:100930008BE201C080E2A7FC8DE2B60190E00E944C
:10094000DF04891438F4B60180E390E00E94DF04EC
:100950009A94F7CF8A94F301E80DF11D8081B601D6
:1009600090E00E94DF048110F5CF222009F442CEEE
:10097000B60180E290E00E94DF042A94F6CFF601EF
:100980008681978102C08FEF9FEF2B96E2E10C9456
:100990009505FC010590615070400110D8F78095D5
:1009A00090958E0F9F1F0895FC016150704001903B
:1009B0000110D8F7809590958E0F9F1F08950F9383
:1009C0001F93CF93DF93FB01238121FD03C08FEFA2
:1009D0009FEF2CC022FF16C04681578124813581AC
:1009E0004217530744F4A081B1819D012F5F3F4F0F
:1009F000318320838C93268137812F5F3F4F37834C
:100A0000268314C08B01EC01FB010084F185E02DED
:100A10000995892BE1F6D80116968D919C9117972F
:100A2000019617969C938E931697CE01DF91CF91E6
:100A30001F910F910895FA01AA27283051F1203112
:100A400081F1E8946F936E7F6E5F7F4F8F4F9F4F62
:100A5000AF4FB1E03ED0B4E03CD0670F781F891FA4
:100A60009A1FA11D680F791F8A1F911DA11D6A0F72
:100A7000711D811D911DA11D20D009F468943F9125
:100A80002AE0269F11243019305D3193DEF6CF0124
:100A90000895462F4770405D4193B3E00FD0C9F7EA
:100AA000F6CF462F4F70405D4A3318F0495D31FD57
:100AB0004052419302D0A9F7EACFB4E0A6959795AA
:100AC000879577956795BA95C9F700976105710580
:100AD00008959B01AC010A2E0694579547953795CA
:100AE0002795BA95C9F7620F731F841F951FA01D24
:100AF00008952F923F924F925F926F927F928F92C2
:100B00009F92AF92BF92CF92DF92EF92FF920F939C
:100B10001F93CF93DF93CDB7DEB7CA1BDB0B0FB6A6
:100B2000F894DEBF0FBECDBF09942A883988488863
:100B30005F846E847D848C849B84AA84B984C884F9
:100B4000DF80EE80FD800C811B81AA81B981CE0FF0
:100B5000D11D0FB6F894DEBF0FBECDBFED010895D5
:040B6000F894FFCF37
:100B64005F02F7019701DF00256C75004E6F746812
:100B7400696E6720506C6179696E672E2E2E005362
:100B8400656C65637420536F6E6720312D340044A7
:100B9400656B752054726565202D204F4F540042BB
:100BA4006972746864617920536F6E67004C4F5AA0
:100BB400202D2044756E67656F6E004C4F5A202DB2
:100BC400204D61696E205468656D650057616974D4
:100BD400204465627567001B001A0018002D00D2BE
:100BE4000101000000080000000800D2010800D242
:100BF400010800D2010800D2010800D20103009FBD
:100C0400010800D20104000000080000000800D21E
:100C1400010800D2010800D2010800D2010800D264
:100C24000103009F010800D201040000000200D269
:100C3400010800D2010800D2010800D2010800D244
:100C44000104005D0108005D0108005D0104005D10
:100C54000108005D0108005D0104005D0108005DFC
:100C64000108005D0104005D010400D201030000DD
:100C74000008005D010200D201080000000800D253
:100C84000108000B0208004B0208006E020800BABB
:100C9400020200000002009302010010030200DCC3
:100CA400030200A40302006E020100000002004BD4
:100CB400020100E3020300A4030300700302002AFC
:100CC400020100000002000B020400EE0104000B0C
:100CD4000202009302030016040300DC030400EE86
:100CE400010400D2010400EE01020093020300DCBF
:100CF400030300A403040026010300260108004A9C
:100D04000104002601040088010400720102002687
:100D1400010300260108004A01040026010400B86A
:100D24000104008801020026010300260108004B8B
:100D3400020400EE01040088010400720104004A68
:100D44000104000B0203000B020800EE01040088FA
:100D5400010400B801040088010200000002000B35
:100D64000202004B020200BA020200930202000BCC
:100D7400020100000002000B0202004B020200BA52
:100D840002020093020200DC0302001003010000CF
:100D9400000200BA02020093020200BA02020093A7
:100DA4000202000B02010000000200E9000400DC62
:100DB400000400F700010000000200EE0104004BF3
:0C0DC4000204000B02010000000200000D
:00000001FF
