S010000050726F6A656374322E737265630B
S11300000C942A000C9447000C9447000C9447006D
S11300100C9447000C9447000C9447000C94EF0593
S11300200C9447000C9447000C9447000C94470030
S11300300C9447000C9447000C9447000C94470020
S11300400C9447000C9447000C9447000C94470010
S11300500C94470011241FBECFE5D8E0DEBFCDBF0E
S113006010E0A0E6B0E0E6E1F3E102C005900D92F5
S1130070A23FB107D9F721E0A2EFB0E001C01D9281
S1130080AE30B207E1F70E940C060C9489090C9477
S113009000009C0183E083BF83E808C082BF98B757
S11300A0916098BFA89508B600FEFDCF2150310994
S11300B0A8F713BE0895662311F0C09A01C0C09832
S11300C0C19882BB8FEF81BBC29A00000000000080
S11300D0C2980895C098C19A11BA90B3C29A000008
S11300E00000000011BA90B3C29899239CF30E94B7
S11300F05B000895B89AB99ABA9A80E190E00E9498
S1130100490060E080E30E945B0085E090E00E948B
S1130110490060E080E30E945B0081E090E00E947F
S1130120490060E08CE30E946A0060E08CE00E9479
S11301306A0060E086E00E946A0060E081E00E945C
S11301406A00089560E081E00E946A000895CF93F8
S1130150C62F98E2899FC00D112460E082E00E94BE
S11301606A00CC2331F060E084E10E946A00C1504F
S1130170D1F7CF910895CF93DF93EC012196FC0141
S11301808081882331F061E00E946A0089918111A5
S1130190FACFDF91CF910895CF93DF9314BA15BAB4
S11301A095B3EB01249621E030E0A9010C2E02C0A6
S11301B0440F551F0A94E2F7492B45BB94B302C080
S11301C0220F331F8A95E2F7922B94BB85B32095B7
S11301D0282325BB8AE090E00E94490023B330E045
S11301E002C035952795CA95E2F781E090E020FF9B
S11301F002C080E090E0DF91CF9108950F931F93A8
S1130200CF93DF9300E010E018C0BE01C8010E9444
S1130210CC00009749F0000F111F000F111FC00FF1
S1130220D11FCE0101960CC02196C430D10569F7C7
S11302300F5F1F4F0430110519F0C0E0D0E0E5CF87
S1130240DF91CF911F910F910895E2EFF0E081E0EB
S113025090E093838283978386830895E2EFF0E0AE
S113026082E091E011921192E817F907D9F7089505
S1130270E2EFF0E0118A108A138A128A158A148A2E
S1130280178A168A118E108E138E128E0895CF93AC
S1130290DF93D82FC92F60E080E00E94A700E2EF2F
S11302A0F0E087858F9386858F9385858F938485EA
S11302B08F9383858F9382858F9381858F93808598
S11302C08F9387818F9386818F9385818F93848188
S11302D08F9383818F9382818F9381818F93808188
S11302E08F9383E990E09F938F93CF93DF930E9442
S11302F09F068D2F9C2F0E94BB0060E081E00E942E
S1130300A7008DB79EB744960FB6F8949EBF0FBE54
S11303108DBF80916000882359F1E2EFF0E0838D76
S11303208F93828D8F93818D8F93808D8F93878907
S11303308F9386898F9385898F9384898F938389FB
S11303408F9382898F9381898F9380898F9386EA93
S113035090E09F938F93CF93DF930E949F068DB776
S11303609EB740960FB6F8949EBF0FBE8DBF92C045
S1130370E2EFF0E020893189C901880F991F220F2B
S1130380331F220F331F220F331F280F391F828977
S11303909389820F931F009709F5838D8F93828D24
S11303A08F93818D8F93808D8F9387898F93868987
S11303B08F9385898F9384898F9385EB90E09F93A6
S11303C08F93CF93DF930E949F068DB79EB70C96B1
S11303D00FB6F8949EBF0FBE8DBF5CC08C309105E4
S11303E024F020E52093610003C021E42093610000
S11303F08C30910519F5E2EFF0E0838D8F93828DB7
S11304008F93818D8F93808D8F9387898F93868926
S11304108F9385898F9384898F9385EC90E09F9344
S11304208F93CF93DF930E949F068DB79EB70C9650
S11304300FB6F8949EBF0FBE8DBF2CC020916100F3
S11304401F922F93E2EFF0E0238D2F93228D2F93B1
S1130450218D2F93208D2F9327892F9326892F93D6
S113046025892F9324892F936CE070E00E947706EE
S11304709F938F9385ED90E09F938F93CF93DF931A
S11304800E949F068DB79EB740960FB6F8949EBF04
S11304900FBE8DBF8D2F9C2F0E94BB00DF91CF918B
S11304A008958F929F92AF92BF92CF92DF92EF9274
S11304B0FF920F931F93CF93DF934C010E94380157
S11304C0C12CD12C00E010E0C2EFD0E00F2EF6EAF0
S11304D0EF2EF0E0FF2EF02D0F2EFCE7AF2EB12C07
S11304E0F02D0E94A20060E081E00E94A7008B8DA5
S11304F08F938A8D8F93898D8F93888D8F938F8916
S11305008F938E898F938D898F938C898F938B8909
S11305108F938A898F9389898F9388898F93FF9288
S1130520EF929F928F920E949F06C4010E94BB008B
S1130530602F6C0D80E00E94A700F401B182A082BC
S1130540C4010E94BB008CE291E00E9449000E9419
S1130550FE002DB73EB7205F3F4F0FB6F8943EBF65
S11305600FBE2DBF0097D9F19C0123703327232B95
S113057031F09C012D7F2D30310551F430C00C97A2
S113058071F50E9438010E94A200C12CD12CC0C078
S11305908E30910579F08530910574F09C01992392
S11305A014F42D5F3F4F3595279535952795821B7C
S11305B0930B02C080E090E0F801EE0FFF1FEE5FA6
S11305C0FE4F918380830F5F1F4F09F4A1C0053054
S11305D011052CF400FD03C03FEFC31AD30A063003
S11305E011050CF47ECF0E94A20060E081E00E941D
S11305F0A700E2EFF0E0838D8F93828D8F93818D3E
S11306008F93808D8F9387898F9386898F93858924
S11306108F9384898F9383898F9382898F93818920
S11306208F9380898F9386EA90E09F938F939F9214
S11306308F920E949F06C4010E94BB008DB79EB793
S113064040960FB6F8949EBF0FBE8DBF8091600098
S1130650811196C08AE0E8EEF0E0D40101900D9299
S11306608A95E1F7C4010E94BB008CE291E00E94EC
S113067049000E94FE008D30910509F44CC00F978B
S1130680A1F763C0E2EFF0E0118A108A138A128A9C
S11306900BC00C96E2EFF0E06AE070E00E9477068F
S11306A0718B608B938B828B0E94A20060E081E04F
S11306B00E94A700E2EFF0E0838D8F93828D8F93E9
S11306C0818D8F93808D8F9387898F9386898F9364
S11306D085898F9384898F9383898F9382898F935C
S11306E081898F9380898F9386EA90E09F938F937B
S11306F09F928F920E949F06C4010E94BB00EDB797
S1130700FEB770960FB6F894FEBF0FBEEDBF38C0AB
S113071000E010E0E6CEE2EFF0E0808991899C01F0
S1130720220F331F880F991F880F991F880F991F55
S1130730820F931F22893389820F931F21E4209310
S113074061000C9709F0B0CF9DCFE2EFF0E0808913
S113075091899C01220F331F880F991F880F991FBD
S1130760880F991F820F931F22893389820F931F49
S113077020E5209361008C30910509F08ACF94CF55
S1130780DF91CF911F910F91FF90EF90DF90CF9069
S1130790BF90AF909F908F9008958F929F92AF9249
S11307A0BF92CF92DF92EF92FF920F931F93CF935A
S11307B0DF934C010E942E01C12CD12C00E010E0EB
S11307C0C2EFD0E00F2EF3E9EF2EF0E0FF2EF02D74
S11307D00F2EFEE5AF2EB12CF02D0E94A20060E09A
S11307E080E00E94A7008F858F938E858F938D85DF
S11307F08F938C858F938B858F938A858F9389852F
S11308008F9388858F938F818F938E818F938D8122
S11308108F938C818F938B818F938A818F9389811E
S11308208F9388818F93FF92EF929F928F920E9471
S11308309F06C4010E94BB00602F6C0D81E00E94E2
S1130840A700F401B182A082C4010E94BB0084EF1E
S113085091E00E9449000E94FE002DB73EB72C5E35
S11308603F4F0FB6F8943EBF0FBE2DBF0097D9F18E
S11308709C0123703327232B31F09C012D7F2D30D5
S1130880310551F430C00C9771F50E942E010E947D
S1130890A200C12CD12C67C08E30910579F085302F
S11308A0910574F09C01992314F42D5F3F4F359505
S11308B0279535952795821B930B02C080E090E025
S11308C0F801EE0FFF1FEE50FF4F918380830F5FFF
S11308D01F4F09F448C0053011052CF400FD03C076
S11308E03FEFC31AD30A083011050CF476CF0E94E7
S11308F0A20060E080E00E94A700E2EFF0E08785BC
S11309008F9386858F9385858F9384858F93838535
S11309108F9382858F9381858F9380858F93878131
S11309208F9386818F9385818F9384818F93838125
S11309308F9382818F9381818F9380818F9383E9B9
S113094090E09F938F939F928F920E949F06C40181
S11309500E94BB008DB79EB744960FB6F8949EBF15
S11309600FBE8DBF03C000E010E037CFDF91CF9101
S11309701F910F91FF90EF90DF90CF90BF90AF90B9
S11309809F908F900895019791F4E2EFF0E0248511
S11309903585220F331F86859785280F391F2370CD
S11309A0332781E090E0232B21F080E0089580E05C
S11309B090E00895EF92FF920F931F93CF93DF93EC
S11309C080910C0190910D010A970CF4F9C0E2EFAB
S11309D0F0E0138E128E808D918D019686309105F4
S11309E02CF490930B0180930A01EAC0E2EFF0E04B
S11309F0118E108E8689978901968A3091052CF480
S1130A009093090180930801DBC0E2EFF0E0178ABC
S1130A10168A848995890196863091052CF49093E1
S1130A20070180930601CCC0E2EFF0E0158A148A36
S1130A30828993890196938B828B20893189223014
S1130A40310564F00497A4F0868197810196978319
S1130A508683118A108A138A128A0AC00A9744F07C
S1130A60E2EFF0E02F5F3F4F318B208B138A128A25
S1130A70E2EFF0E0E280F38000811181E801CC0F25
S1130A80DD1FC801880F991F880F991F880F991FB0
S1130A90C80FD91FCE0DDF1D219724813581FE019A
S1130AA0EE0FFF1FE558FF4F808191810197821758
S1130AB0930704F5CE010E94C304CC0FDD1FCD596A
S1130AC0DF4F28813981820F931F2091F8003091E4
S1130AD0F90082179307E4F4E2EFF0E08FEFE81AED
S1130AE0F80AF382E2821582148281E090E097830F
S1130AF086830EC08091F8009091F9000A9744F023
S1130B00E2EFF0E02F5F3F4F358324831782168294
S1130B1010161106A4F48091F4009091F500039747
S1130B20E4F0E2EFF0E08685978501969787868763
S1130B301182108281E090E0938382830EC08091C1
S1130B40F4009091F5000A9744F0E2EFF0E013828C
S1130B5012820F5F1F4F11830083809100019091D7
S1130B6001010A976CF1E2EFF0E01786168684859E
S1130B70958501968A3091052CF49093FF0080931B
S1130B80FE001EC0E2EFF0E0158614868285938590
S1130B9001968A3091052CF49093FD008093FC001B
S1130BA00FC0E2EFF0E013861286808591850196EE
S1130BB0918780870A9724F00E942E010E942501C4
S1130BC0DF91CF911F910F91FF90EF90089581E0F5
S1130BD090916000911180E08093600008951F92CD
S1130BE00F920FB60F9211248F939F93EF93FF935D
S1130BF080916200882339F0E2EFF0E0828D938DDA
S1130C000196938F828FFF91EF919F918F910F9017
S1130C100FBE0F901F901895CF93DF93CDB7DEB71B
S1130C2064970FB6F894DEBF0FBECDBFB89AB998DB
S1130C308EB588608EBD89B7806189BF789481E163
S1130C409AE79BBD8ABD8EB584608EBD0E947A00F2
S1130C500E942E010E9438010E94250111E060E0EB
S1130C6080E00E94A7000E94FE000097C9F19C0149
S1130C7023703327232B71F58830910599F024F4E0
S1130C808430910541F026C08C30910591F080317B
S1130C909105C1F01FC0F894CE0101960E94CD03C6
S1130CA078941EC0F894CE0101960E945102789463
S1130CB017C00E9438010E942E010E94A2000E94C7
S1130CC025010EC0812F90916200911180E08093E4
S1130CD0620006C00D9721F40E94E7050E94A2005D
S1130CE00E94DA04CE0101960E944701B8CF97FB17
S1130CF0072E16F4009407D077FD09D00E948B06C6
S1130D0007FC05D03EF4909581959F4F089570950A
S1130D1061957F4F0895AA1BBB1B51E107C0AA1F11
S1130D20BB1FA617B70710F0A61BB70B881F991F88
S1130D305A95A9F780959095BC01CD010895AEE030
S1130D40B0E0E5EAF6E00C9460090D891E8986E0BE
S1130D508C831A8309838FEF9FE79E838D83AE0173
S1130D60475E5F4F6F89788DCE0101960E94C10660
S1130D70EF81F885E00FF11F10822E96E4E00C94C9
S1130D807C09ABE0B0E0E7ECF6E00C9452096C01AE
S1130D907B018A01FC0117821682838181FFCCC109
S1130DA0CE0101963C01F6019381F70193FD8591F3
S1130DB093FF81917F01882309F4BAC1853239F404
S1130DC093FD859193FF81917F01853229F4B601CA
S1130DD090E00E94B808E7CF912C212C312CFFE140
S1130DE0F315D8F08B3279F038F4803279F083320D
S1130DF0A1F4232D20611DC08D3261F0803369F48C
S1130E00232D216016C0832D8260382EE32DE460EB
S1130E103E2E2AC0F32DF8601DC037FC2DC020EDF6
S1130E20280F2A3040F08E32B9F436FC81C1232DCC
S1130E302064322E19C036FE06C08AE0989E200D2A
S1130E401124922E11C0EAE02E9E200D1124222E90
S1130E50F32DF0623F2E08C08C3621F4832D806878
S1130E60382E02C0883641F4F70193FD859193FF33
S1130E7081917F018111B3CF982F9F7D9554933039
S1130E8028F40C5F1F4F9FE399830DC0833631F024
S1130E90833771F0833509F059C021C0F80180818E
S1130EA089830E5F1F4F88248394912C530113C0B0
S1130EB02801F2E04F0E511CF801A080B18036FEEB
S1130EC003C0692D70E002C06FEF7FEFC5010E947F
S1130ED0AD084C018201F32DFF773F2E16C0280187
S1130EE022E0420E511CF801A080B18036FE03C0FE
S1130EF0692D70E002C06FEF7FEFC5010E94A20868
S1130F004C01F32DF0683F2E820133FC1BC0822D6F
S1130F1090E088169906B0F4B60180E290E00E9451
S1130F20B8082A94F4CFF50137FC859137FE8191F6
S1130F305F01B60190E00E94B80821102A9421E0D4
S1130F40821A91088114910471F7E8C0843611F073
S1130F50893641F5F80137FE07C0608171818281CD
S1130F6093810C5F1F4F08C060817181072E000CB4
S1130F70880B990B0E5F1F4FF32DFF763F2E97FFC3
S1130F8009C090958095709561957F4F8F4F9F4FC5
S1130F90F0683F2E2AE030E0A3010E94F408882E76
S1130FA0861845C0853731F4232D2F7EB22E2AE0D2
S1130FB030E025C0932D997FB92E8F36C1F018F4F7
S1130FC0883579F0B5C0803719F0883721F0B0C082
S1130FD0E92FE061BE2EB4FE0DC0FB2DF460BF2EE0
S1130FE009C034FE0AC0292F2660B22E06C028E0AC
S1130FF030E005C020E130E002C020E132E0F80139
S1131000B7FE07C060817181828193810C5F1F4F9D
S113101006C06081718180E090E00E5F1F4FA301E4
S11310200E94F408882E8618FB2DFF773F2E36FE8B
S11310300DC0232D2E7FA22E891458F434FE0BC02C
S113104032FC09C0832D8E7EA82E05C0B82CA32C9B
S113105003C0B82C01C0B92CA4FE0FC0FE01E80DDA
S1131060F11D8081803321F49A2D997EA92E09C027
S1131070A2FE06C0B394B39404C08A2D867809F006
S1131080B394A3FC11C0A0FE06C0B21488F4280CCB
S1131090922C9B180EC0B21460F4B60180E290E06A
S11310A00E94B808B394F7CFB21418F42B1802C0F6
S11310B0982C212CA4FE10C0B60180E390E00E947D
S11310C0B808A2FE17C0A1FC03C088E790E002C0E4
S11310D088E590E0B6010CC08A2D867859F0A1FE0F
S11310E002C08BE201C080E2A7FC8DE2B60190E071
S11310F00E94B808891438F4B60180E390E00E9495
S1131100B8089A94F7CF8A94F301E80DF11D808111
S1131110B60190E00E94B8088110F5CF222009F4AE
S113112042CEB60180E290E00E94B8082A94F6CF3D
S1131130F6018681978102C08FEF9FEF2B96E2E143
S11311400C946E09FC010590615070400110D8F7B1
S1131150809590958E0F9F1F0895FC0161507040FB
S113116001900110D8F7809590958E0F9F1F0895D8
S11311700F931F93CF93DF93FB01238121FD03C0C2
S11311808FEF9FEF2CC022FF16C046815781248128
S113119035814217530744F4A081B1819D012F5F2B
S11311A03F4F318320838C93268137812F5F3F4FBC
S11311B03783268314C08B01EC01FB010084F18585
S11311C0E02D0995892BE1F6D80116968D919C9115
S11311D01797019617969C938E931697CE01DF91DD
S11311E0CF911F910F910895FA01AA27283051F148
S11311F0203181F1E8946F936E7F6E5F7F4F8F4F44
S11312009F4FAF4FB1E03ED0B4E03CD0670F781FA2
S1131210891F9A1FA11D680F791F8A1F911DA11D87
S11312206A0F711D811D911DA11D20D009F46894C0
S11312303F912AE0269F11243019305D3193DEF668
S1131240CF010895462F4770405D4193B3E00FD01E
S1131250C9F7F6CF462F4F70405D4A3318F0495D09
S113126031FD4052419302D0A9F7EACFB4E0A695EC
S11312709795879577956795BA95C9F7009761050E
S1131280710508959B01AC010A2E06945795479564
S113129037952795BA95C9F7620F731F841F951F59
S11312A0A01D08952F923F924F925F926F927F926A
S11312B08F929F92AF92BF92CF92DF92EF92FF9262
S11312C00F931F93CF93DF93CDB7DEB7CA1BDB0B0E
S11312D00FB6F894DEBF0FBECDBF09942A883988B3
S11312E048885F846E847D848C849B84AA84B984BA
S11312F0C884DF80EE80FD800C811B81AA81B981C6
S1131300CE0FD11D0FB6F894DEBF0FBECDBFED01D9
S10913100895F894FFCFDC
S11313160141010100080001000000010000000174
S113132600010000000100000001000300020003A8
S1131336000300030003000300030003000300038B
S1131346000300256925692F256925692F25692547
S1131356692569256900256925693A256925693A52
S1131366256925690031323A256925693A256925B1
S11313766920414D0031323A256925693A256925A6
S11313866920504D00253032693A256925693A2588
S11313966925692025634D002041282A29502823E0
S10513A6290018
S9030000FC
